:100000000C9468040C94A0040C94A0040C94A00418
:100010000C94A0040C94A0040C94A0040C94A004D0
:100020000C94A0040C94A0040C94412C0C94FD2B73
:100030000C943E2D0C94A0040C94A0040C94A004E9
:100040000C94A0040C94A0040C94A0040C94A004A0
:100050000C94A0040C941A2D0C94A0040C94A004ED
:100060000C94A0040C94A0040C94A0040C94A00480
:100070000C94A0040C94A0040C94A0040C94A00470
:100080000C94A0040C94A0040C94A0040C94A00460
:100090000C94A0040C94A0040C94A0040C94A00450
:1000A0000C94A0040C94A0040C94A004FD377A587E
:1000B0005A000004E6D6B4460200210116000000F2
:1000C000742FE5A3E0057E01E45D003D8889C654F8
:1000D00036C3174FE4DCC66A5E1EA298D1F95438C5
:1000E000D1568B3581A147FF07AD4E8DD57ED547C3
:1000F00029921DB82E5306F26480166FB0B7C83629
:100100009114CD4D84AE60B6206EF09EF80A37EFA4
:100110001A519A070D093E8B23D330D4DFC37AAD31
:100120003F2C5B88EA21205C8D625B9AA8347ACAF6
:100130003B79044C34C6CE480A63BC0CBAE970A4BF
:10014000E9C59F0103258C52F004523F1CEE9465D3
:1001500028242948518AFE531FA4E4FCFCE2691EAE
:10016000484B7EA9507E5F289BC317A94A1E8FF378
:10017000FEB410DC70E16C85CAA699429A73506D8A
:100180004DD3EC585EEF5895FDF33B5C0E4EC4D654
:10019000D55EA4A6BD75B226BA07B6E9F34E232CE8
:1001A000D48554181D1443AB0AB70F301F12CA2B45
:1001B00063DA3C6C9512E3624838C77F8EB95E3BC8
:1001C00091FD54DFEBDB3054BE6B5C2F5B5733CCBF
:1001D00023D223C8AFEB585644361D2CB3F8EB148A
:1001E000037F62A68C90A3807DD5D25F2D6CA2A0E8
:1001F0007856E2A26894BE1B77AE20ADB9A031CF8D
:1002000095E752920EA696AF0D022696DE25DC707B
:1002100095014B257DACDD7838078952032F158970
:1002200068ABCB5644DD4458CE0E2320CE29B83CD3
:10023000982A90EA08B68E3218F25CBF592B42FC1D
:10024000E30D9A8D240FB55186618F7F5271686DD1
:1002500025EF28AB7AFA8DC0CFD902EC479FC1C8F1
:10026000C196297A8FB53A297FD2036199B73C7339
:100270001BDA91DD7FC5BE0A379E5952F9364C0F05
:100280007D09B41560881DFD8305D507E842EE643D
:10029000E2109CE1CD27124B55274483EC742D0BC3
:1002A000F96B3C666B4185046F47A3CDFC60D400BD
:1002B000D30D0C5E5C33B76900018004FF0A0000B7
:1002C000E2E5F7FBB1C467FB020000000004595AE5
:1002D0000000000002000100000101010101010114
:1002E00001010202020202020202020303030303EB
:1002F00003030304040404040404050505050506BA
:100300000606060607070707070808080809090977
:10031000090A0A0A0B0B0B0C0C0C0D0D0D0E0E0E20
:100320000F0F0F10101111111212131314141515B1
:1003300016161717181819191A1A1B1B1C1D1D1E23
:100340001E1F202021222223242425262627282977
:10035000292A2B2C2D2D2E2F3031323233343536A5
:100360003738393A3B3C3D3E3F40414243444546A5
:100370004748494A4C4D4E4F505153545556585981
:100380005A5B5D5E5F616264656668696B6C6D6F28
:100390007072737577787A7B7D7E8082838587889B
:1003A0008A8C8E8F91939596989A9C9EA0A2A3A5D5
:1003B000A7A9ABADAFB1B3B5B7BABCBEC0C2C4C6D6
:1003C000C9CBCDCFD1D4D6D8DBDDDFE2E4E7E9EB92
:1003D000EEF0F3F5F8FAFDFF29003B003D003F0089
:1003E0004100430045004600480000003A003C0040
:1003F0003E004000420044006800470035001F00F6
:1004000021002300250027002E0049004B0000009A
:100410001E0020002200240026002D002A004A0091
:100420002B001A0015001C000C00130030004C00BB
:100430004E000000140008001700180012002F00E2
:1004400031004D003900160009000B000E0033008A
:100450003200350000000000040007000A000D0013
:100460000F00340028000000E1001B0019001100FB
:1004700036003800000021525200E1001D00060045
:100480000500100037000000E5000000E000E20079
:100490000000000000000000000050004F000000BD
:1004A000000000002C0000000000E600E400510005
:1004B0000100010001000100010001000100010034
:1004C0000100000001000100010001000100010025
:1004D0000100010001000100010001000100010014
:1004E0000100010001000000010001000100010005
:1004F00001000100010001000100010001000100F4
:1005000001000100010001000100000001000100E4
:1005100001000100010001000100010001000100D3
:1005200001000100010001000100010000000000C5
:1005300001000100010001000100010001000000B4
:1005400001000100010001000100010000000100A4
:100550000100010001000100010001000100000094
:100560000100000001000100000000000000000088
:100570000000010001000000000000000100000078
:100580000000010001000100010001000100010064
:100590000100010001000100010000000100010054
:1005A0000100010001000100010001000100010043
:1005B0000100010001000100010001000100000034
:1005C0000100010001000100010001000100010023
:1005D0000100010001000100010001000100010013
:1005E0000100000001000100010001000100010004
:1005F00001000100010001000100010001000100F3
:1006000001000100000000000100010001000100E4
:1006100001000100010000000100010001000100D3
:1006200001000100000001000100010001000100C3
:1006300001000100010000000100000001000100B4
:1006400000000000000000000000010001000000A8
:100650000000000001000000000001000100010096
:100660000660FF0961A1010962150026FF009520BF
:10067000750881020963150026FF00952075089111
:1006800002C005010906A1018501050719E029E756
:1006900015002501950875018102950175088101F4
:1006A0000507190029FF150026FF0095067508812A
:1006B0000005081901290515002501950575019109
:1006C00002950175039101C005010902A10185028E
:1006D0000901A1000509190129081500250195083E
:1006E000750181020501093009311581257F9502C7
:1006F0007508810609381581257F950175088106E1
:10070000050C0A38021581257F950175088106C000
:10071000C005010980A101850319012AB70015014F
:1007200026B700950175108100C0050C0901A101D3
:10073000850419012AA002150126A0029501751051
:100740008100C005010906A1018506050719E029F8
:10075000E715002501950875018102050719002993
:10076000EF1500250195F075018102050819012991
:1007700005950575019102950175039101C0090266
:100780004200020100A0FA09040000010301010077
:1007900009211101000122FC00070583032000014B
:1007A00009040100020300000009211101000122D7
:1007B0002200070581032000010705020320000134
:1007C000120100020000000884753341000101029B
:1007D00003011C037600690061006C003A006600AA
:1007E0003600340063003200620033006300000012
:1007F0001E03430061006C006C00610020005B0080
:1008000053006F006C006400650072005D00000022
:100810000A035F00620076006E0000000403090412
:1008200000000000000000000000000000000000C8
:1008300000000000000000000000000000000000B8
:10084000000000007E0F00D4FFFFFFC7000000780B
:1008500000000000000000002A2B2800000000001B
:10086000000000000000000000000029000000005F
:100870002C1E3420212224342627252E362D3738CD
:10088000271E1F202122232425263333362E3738D6
:100890001F0405060708090A0B0C0D0E0F10111294
:1008A000131415161718191A1B1C1D2F3130232D60
:1008B000350405060708090A0B0C0D0E0F1011125E
:1008C000131415161718191A1B1C1D2F3130354C0F
:1008D00011241FBECFEFDAE0DEBFCDBF04B603FEAA
:1008E00018C08091950590919605A0919705B091BB
:1008F00098058730904BA740B04B59F4109295055E
:10090000109296051092970510929805E0E0F8E392
:10091000099512E0A0E0B1E0E4E4FEE602C0059033
:100920000D92A630B107D9F725E0A6E0B2E001C0EC
:100930001D92A539B207E1F70E94652D0C94AE36E1
:100940000C940000482F2091940590914B0559E09C
:10095000291302C080E0089530E0529FF001539FB8
:10096000F00D1124E45BFA4F8181681306C0808189
:10097000481303C085818111EECF2F5F3F4F277051
:10098000E7CF10923F0510923E0510923D0580E1A1
:1009900080933C058FEF9FEF90933B0580933A0542
:1009A0000895E8EDF0E080818E7F80831092E20070
:1009B0001092DA001092E100A0EEB0E08C9181601C
:1009C0008C9380818F77808319BCA7EDB0E08C91E8
:1009D0008E7F8C9380818F7E808310920B0508958B
:1009E0002091E4003091E50095E6A9012091EC000A
:1009F000822F817020FF06C08091E80080FF06C032
:100A000080E008952091E80022FD1AC08091300511
:100A1000882389F0853089F08091EB0085FD0FC037
:100A20002091E4003091E50042175307F9F291500C
:100A3000E1F684E0089582E0089583E0089581E07E
:100A400008958091320587FF13C08091E80082FFEE
:100A500006C08091E8008B778093E80004C0809105
:100A600030058111F2CF0895809130058823D9F3A4
:100A70008091E80080FFF8CF8091E8008E77ECCF7E
:100A8000982F9093E900242F762F50E0891731F0AA
:100A90007091EC002091ED005091F00021FD07C015
:100AA0009F5F973071F78093E90081E0089530915E
:100AB000EB003E7F3093EB003091ED003D7F3093B3
:100AC000ED003091EB0031603093EB007093EC005F
:100AD0002093ED005093F0002091EE0027FDE0CF31
:100AE00080E00895B0E0A0E0E8E7F5E00C94F1358F
:100AF000C8EDD0E088818F7E8883E7EDF0E08081CB
:100B00008160808384E082BF81E080930B058881CF
:100B10008E7F888302EE10E0F80110821092DA00D6
:100B200081EEC82ED12CF601108288818F778883C0
:100B300088818068888388818F7D888319BC109222
:100B400030051092310510922F0510922E0590EE6F
:100B5000E92EF12CF70180818B7F80838881816071
:100B6000888342E060E080E00E944005F6018081D9
:100B70008E7F8083F801808181608083808188609E
:100B80008083F70180818E7F808388818061888364
:100B9000CDB7DEB7E8E00C940D36FC018091380546
:100BA0009091390586179707A0F06115710529F412
:100BB0009091E8009E779093E80090E061157105B0
:100BC00051F4911108C08091E80082FF34C080E0A8
:100BD0000895BC01F2CF809130058823C1F18530A2
:100BE000C1F18091E80083FD30C08091E80082FD72
:100BF000EACF8091E80080FFE1CF8091F30020915F
:100C0000F200382F6115710519F02830310558F0C0
:100C100091E02830310509F090E02091E8002E772E
:100C20002093E800CBCF81918093F100615071094E
:100C30002F5F3F4FE7CF80913005882341F085300B
:100C400041F08091E80083FFBECF81E0089582E00B
:100C5000089583E0089580910D0508959C014FB794
:100C6000F8948091050590910605A0910705B09133
:100C700008054FBF821B930B08952FB7F89460911E
:100C800005057091060580910705909108052FBF15
:100C900008952FB7F8948091050590910605A091CD
:100CA0000705B09108052FBF0895A3E0B0E0EBE57C
:100CB000F6E00C94F73520910205309103052817D2
:100CC0003907A1F09093030580930205E091000598
:100CD000F0910105309751F024E029839B838A83AA
:100CE0000680F781E02DCE01019609952396E2E07A
:100CF0000C941336A3E0B0E0E0E8F6E00C94F7358E
:100D00002091FE043091FF0428173907A1F0909339
:100D1000FF048093FE04E0910005F09101053097F7
:100D200051F023E029839B838A830680F781E02D9D
:100D3000CE01019609952396E2E00C941336E091DA
:100D40000005F0910105309729F00190F081E02D28
:100D50000995089580E008954115510511F0FA01B3
:100D600009950895CF93DF93EC014091EC045091E5
:100D7000ED046091EE047091EF042FB7F894809128
:100D8000050590910605A0910705B09108052FBFB4
:100D9000841B950BA60BB70B843F9140A105B105B1
:100DA00018F58091EC049091ED04A091EE04B091BF
:100DB000EF048093E8049093E904A093EA04B093CD
:100DC000EB0484EF91E0A0E0B0E08093E404909322
:100DD000E504A093E604B093E704D093F404C09331
:100DE000F304DF91CF9108950E943D066093E804DB
:100DF0007093E9048093EA049093EB0482E390E01B
:100E0000A0E0B0E0E2CFFC018481862351F492811E
:100E10009923B9F06923808583FF05C081E06111C2
:100E20000FC080E00895892F8F7092959F70982B46
:100E3000862F8F7062956F70682B81E09613F1CFCB
:100E4000089581E0FDCFDC016091DE048091DF0434
:100E5000962F891301C00895292F30E0F901EE0F74
:100E6000FF1FEA52FB4F408151814A175B07A1F4F3
:100E700087E08A9FA0018B9F500D11244F5A5B4F32
:100E800081E0FA0184839613E6CF2F5F3F4F2370F2
:100E900033272093DE0408952F5F3F4F922F9370E6
:100EA000D8CF10924F0410924E04E1E5F4E0858112
:100EB000811102C014821682379684E0ED36F8075D
:100EC000B1F70895EBE5F3E090E080E06DEC7AE2B5
:100ED00044EF5AE22FE43AE27783668351874087F2
:100EE000338722879787868701967096843091058D
:100EF00099F7089581152CE7920741F42091E204B7
:100F00003091E304232B11F490E080E00895FA017E
:100F1000811101C0FB0109950895EBE1F3E08183A4
:100F200060834283339693E0EB34F907C1F7089569
:100F3000FC01EE0FFF1FE80FF91FE55EFC4F618318
:100F4000408322830895E4E4F5E0248130E1231B0B
:100F500008F420E0248380911A03816080931A03AF
:100F60000895E4E4F5E0248130E1230F08F42FEF45
:100F7000248380911A03816080931A0308959091CD
:100F80004405937059F0809345056093460540935E
:100F9000470580911A03822B80931A030895E4E495
:100FA000F5E0438120E1421B08F440E0818121E02B
:100FB000628190E00E94BF070895E4E4F5E0438178
:100FC00020E1420F08F44FEF818121E0628190E03F
:100FD0000E94BF070895E4E4F5E0628120E1621B0E
:100FE00008F460E0818121E0438190E00E94BF0726
:100FF0000895E4E4F5E0628120E1620F08F46FEF08
:10100000818121E0438190E00E94BF070895E4E4DC
:10101000F5E0818121E0438162818051990B0E943A
:10102000BF070895E4E4F5E0818190E021E0438189
:10103000628140960E94BF07089590914405937085
:1010400061F081110BC094609093440510920B01E4
:1010500080911A03862B80931A030895893010F02B
:101060009062F2CF880F880F982BEECF80914405C5
:1010700086958695815009F488E061E00E941D08FC
:10108000089580914405869586958F5F893008F094
:1010900081E061E00E941D0808952FE030E0F90131
:1010A000E41BF10920E030E802C036952795EA9567
:1010B000E2F740913D0550913E0524233523232B33
:1010C00009F480E0089520E030E802C036952795C5
:1010D0004A95E2F740913D0550913E052423352382
:1010E000232B09F480E008950E948D0708952FE0D6
:1010F000829FC0011124880F892F881F990B919519
:101100002EE130E0A901461B510967FD5395840F7C
:10111000951FB9010E94B2359C018031910510F0F4
:101120008EE1821B0895FF920F931F93CF93DF935D
:10113000D42F122FF090450500914605C091470528
:10114000403140F560E0822F0E9477088D17A1F0B2
:1011500061E0812F0E9477088D1771F06FEF812F6A
:101160000E9477088D1741F062E0812F0E94770876
:101170008D130AC0C695C6956F2D702F8C2FCDB7D5
:10118000DEB7E5E00C9410366EEF812F0E947708F1
:101190008D1781F3C0E0F0CF282F90E080E021117F
:1011A00001C0089597FF02C09695879590682150D9
:1011B000F6CFCF93C62F0E94CC0820913D053091E9
:1011C0003E05822B932B90933E0580933D056091C5
:1011D0003C05C69FB001112436E0769567953A9597
:1011E000E1F76F70772720913A0530913B0526177C
:1011F000370751F09695879590933E0580933D056E
:1012000070933B0560933A05CF9108951F93CF9358
:10121000DF9390911803C0913D05D0913E0521E0E8
:1012200030E0092E02C0220F331F0A94E2F72C236C
:101230003D23232B19F09F5F9093180310911803FF
:1012400080E1811B0E94CC08809590958C2B9D2B72
:1012500090933E0580933D05103114F010923F05A8
:10126000DF91CF911F910895CF92DF92EF92FF927D
:101270001F93CF93DF93C09119036C9FE00111245A
:1012800066E0D695C7956A95E1F7CF70DD27E090C7
:101290003D05F0903E05C0903A05D0903B059091F9
:1012A0003F05992319F1CC15DD0551F0F694E7942B
:1012B000F0923E05E0923D05D0933B05C0933A0580
:1012C0000E94CC0820913D0530913E05822B932B46
:1012D00090933E0580933D050E940609DF91CF91D2
:1012E0001F91FF90EF90DF90CF9008951091180319
:1012F000181B10931803812F0E94CC08BC01609525
:1013000070959B012E213F21CC15DD0541F03695CE
:101310002795C623D723D0933B05C0933A058E214A
:101320009F21822B932B90933E0580933D051116B0
:10133000ACF281E080933F0510921803CFCF9091DB
:101340001903699FB001112456E0769567955A9567
:10135000E1F76F70772790913F0520913A05309122
:101360003B052617370761F120913D0530913E0579
:101370003695279530933E0520933D0570933B05A8
:1013800060933A05992379F00E94CC0820913D059D
:1013900030913E05822B932B90933E0580933D0523
:1013A0000E940609089580911803815080931803C4
:1013B00080911803811103C081E080933F05089557
:1013C0009923B1F3E1CFAF92BF92CF92DF92FF9218
:1013D0000F931F93CF93DF93362F472FE82FF0E023
:1013E000E852FD4F71110FC0E4918E2F2E2F6E2FFA
:1013F000722FDF91CF911F910F91FF90DF90CF90CF
:10140000BF90AF900895C72FD0E02491F22E022F05
:1014100010E056E0659FC0011124EFEFF0E0BF013E
:101420000E94B235832F90E0880F991F35E5369FD3
:10143000D001379FB00D11248A1B9B0B982F990F59
:10144000980F6F01CC1ADD0AC09ED001C19EB00D6D
:10145000D09EB00D11248B2F499FA0011124452F40
:1014600055276F01C41AD50AC09EA001C19E500D18
:10147000D09E500D11245F01A91AB108AC9E6001E5
:10148000AD9ED00CBC9ED00C1124CD2CDD24EC19CB
:10149000FD09E09FE001E19FD00DF09FD00D1124E8
:1014A000ED2F62307105A1F050F46115710509F45A
:1014B0009ECF6130710581F0EB2F852F98CF64307E
:1014C000710569F080F06630710509F490CFF4CFB2
:1014D000E22F2B2F8D2F8BCFE22F252F88CFEB2FB5
:1014E000822F2D2F84CF2B2F8F2DE52F80CFEF92A2
:1014F000FF920F931F93CF93DF937C01FB01C09169
:101500000E01CC0FCC0F14E01C0F012F113108F08D
:1015100000E180914A0510924A05209148052695E0
:10152000269531E0230F08F42FEF409140055091AC
:10153000410570E060E0429F612D529F600D711D7A
:1015400011240995D0E0C01748F081E0103108F06F
:1015500080E0CDB7DEB7E6E00C940F36FE01EA502E
:10156000FE4F808190910F01892389F0609145059C
:1015700070914605809147054C2FF70109950E940F
:10158000E309462F282F672FCE010E949807219646
:10159000DACF0E9449069C019091E7028091E8020F
:1015A000982B21F03093E4022093E3029091E9021A
:1015B0008091EA02982B21F03093E2022093E1021D
:1015C000E0910005F0910105309749F082E08093A9
:1015D000E5020480F581E02D85EE92E009950895FD
:1015E0008091E00280FD16C081FD16C082FD16C00C
:1015F0008091DF028823A1F0883280F428E0829F66
:10160000C001112468E270E00E94C635862F672B66
:1016100039F0089582E0089584E0089588E00895FF
:1016200081E008958091E00280FD14C081FD14C026
:1016300082FD16C08091DE02882381F08E3180F415
:1016400020E5829FC00111246EE170E00E94C63542
:10165000862F089584E1089588E2089588E008952A
:1016600080E50895282F35EB2303C001112497FF4F
:1016700004C080589109892F089580589F4FFBCF4F
:1016800080E00895F894E82FE295EF70F0E031A142
:10169000282F2F7081E090E001C0880F2A95EAF78B
:1016A000982F9095932391A392A1892B82A378944C
:1016B00008959091090592FF10C041E0282F2471F0
:1016C000243009F040E031E0282F2871283009F05B
:1016D00030E0431711F02CE0822793FF10C041E067
:1016E000282F2471243109F040E031E0282F28719F
:1016F000283109F030E0431711F02CE082273091B7
:101700000A0530FF10C051E0282F2171213009F067
:1017100050E041E0282F2871283009F040E05417AC
:1017200011F029E0822731FF10C041E0282F2171FC
:10173000213109F040E031E0282F2871283109F0EB
:1017400030E0431711F029E0822794FD877E089549
:1017500082389105B9F1B0F48133910509F47DC067
:1017600048F48932910509F46DC08A32910509F473
:101770007BC008958533910509F45FC089339105D5
:1017800009F10895833E9105D9F138F4803E910521
:1017900029F1823E910579F10895863E9105D9F1AE
:1017A000873E910509F43EC0843E910541F52091A4
:1017B0000A0521FF24C08091090584FD19C087EE28
:1017C00090E0089520910905237009F05AC02091F6
:1017D0000A0523FF14C089E290E0089520910905CD
:1017E00020FD38C030910A0530FF09C024FF43C0F6
:1017F00090E080E008952091090522FDF7CF08953B
:101800002091090522FD3AC030910A0530FD39C00A
:1018100024FFF5CFEDCF2091090523FFF0CF24FD64
:10182000E7CFCDCF2091090523FD2EC030910A05C9
:1018300031FFEECF84EE90E008952091090525FF59
:10184000DECFC9CF2091090525FD21C020910A05D1
:1018500023FFD5CF89E390E0D2CF2091090526FF61
:10186000CECF8AE290E008952091090526FFC7CFE8
:1018700081E390E0089583EE90E0089582EE90E099
:10188000089580EE90E0089586EE90E0089585E357
:1018900090E008951F93CF93DF930E94A80BEC0173
:1018A000C11580E5D807F0F5C11580E4D80708F028
:1018B0009CC0C03ED10520F5CD3CD10508F082C0CA
:1018C000C83AD10578F4C53AD10508F073C0C130E3
:1018D000D10519F1209709F1C430D105F0F4D0E019
:1018E000C0E01BC0C33CD105D0F7C85AD0E0CC0F34
:1018F000DD1FC15EDE4F0990D881C02DD4640DC0BC
:10190000C11580E2D80708F0D1C0C11581E0D80721
:1019100008F05AC0C83ED10510F7CE01DF91CF9133
:101920001F910895C03682E5D80718F5C03482E5C6
:10193000D80708F06BC0C03282E5D80708F05FC056
:10194000C11582E5D80708F497C02C2F2695269557
:1019500080E2289F900111248C2F8370C1E0D0E099
:1019600002C0CC0FDD1F8A95E2F7C22BD32BDD68B6
:10197000D4CFC03A82E5D80760F4C03882E5D807F2
:1019800008F459C0CF71D0E0DC2FCC27C46FD06AE7
:10199000C4CFC03C82E5D80708F462C0C03E82E5EF
:1019A000D80708F09CCFDC2FCC27CC27DF71C06F85
:1019B000D06AB3CFC55AD0E0C45EDE4FC881D0E054
:1019C000D064ABCFD065A9CF8D2F0E94590B182FB3
:1019D000CE0199270E94A80BC12FD0E0DC2FCC2785
:1019E000CC27DF71C82BD92B98CFCE0199270E9425
:1019F000A80BCC27DF70C82BD92BD06A8ECFCF7124
:101A0000D0E0DC2FCC27C16FD06A87CF2C2F269552
:101A10002695277080E2289F900111248C2F8370D7
:101A2000C1E0D0E002C0CC0FDD1F8A95E2F7C22BE7
:101A3000D32BDC6872CF2C2F26952695277080E259
:101A4000289F900111248C2F8370C1E0D0E002C048
:101A5000CC0FDD1F8A95E2F7C22BD32BDA685DCF5E
:101A60008C2F8F710E94590BC82FD0E0DC2FCC2710
:101A7000CC27DF71D06251CF8C2F8F710E94590B10
:101A800055E0D695C7955A95E1F7CF70D0E0DC2F99
:101A9000CC27282F30E084FF05C044E0220F331FFD
:101AA0004A95E1F7C22BD32BD06937CF8D2F8F7199
:101AB0000E94590B182FCE0199270E94A80BC12F05
:101AC000D0E0DC2FCC27CC27DF71C82BD92BD2CF8D
:101AD00080918402882331F0109284021092830254
:101AE00010928202089590918402292F282361F098
:101AF0008095892380938402882339F00E944906C7
:101B00009093830280938202089590E080E0F8CF62
:101B100080959091FA0498239093FA040895809503
:101B20009091FB0498239093FB0408951092610216
:101B30001092600210925F02089590915E02292F28
:101B4000282321F08095892380935E020895909147
:101B50000D019923D1F09091090597FF16C0E82F48
:101B6000E695E695E695EE31E0F4F0E0E85FFD4FAE
:101B7000282F277081E090E001C0880F2A95EAF7AE
:101B800080959281892382830895EBE0F2E0919120
:101B9000891303C0DF0111971C9292E0E131F9072C
:101BA000B1F7089590910D019923C1F09091090525
:101BB00097FF14C0E82FE695E695E695EE31F8F428
:101BC000F0E0E85FFD4F877021E030E001C0220FB8
:101BD0008A95EAF78281822B82830895ABE0B2E096
:101BE000EFEF90E02D91821751F0EF3F19F42111A2
:101BF00001C0E92F9F5F9630A9F7EF3F09F40895E0
:101C00000E2E000CFF0BE85FFD4F8383089580913B
:101C1000940590914B05981301C008958F5F8770CC
:101C2000FACF292F9C3078F5893068F590E039E0BB
:101C3000239F800D911D1124682F677023E09695D6
:101C400087952A95E1F7FC01EE0FFF1FE80FF91FBA
:101C5000E55DFD4F50E040E080E0219130E0062E50
:101C600002C0369527950A94E2F721703327042E97
:101C700001C0220F0A94EAF7822B4F5F5F4F433077
:101C8000510559F7089580E00895292F9C3098F563
:101C9000893088F590E039E0239F800D911D112453
:101CA000282F277041E001C0440F2A95EAF723E06E
:101CB000969587952A95E1F7FC01EE0FFF1FE80F37
:101CC000F91FE55DFD4F30E020E070E05191DF014C
:101CD0001197CB01022E02C0969587950A94E2F7E0
:101CE000817081958527842385278C932F5F3F4FB3
:101CF0002330310559F708958093A30208959091F8
:101D0000A30221E030E0F90101C0EE0F8A95EAF765
:101D1000D90102C0AA0FBB1F6A95E2F7EA2B01C0E6
:101D2000220F4A95EAF7892F8E23E81305C0292B45
:101D3000822F0E947C0E089520952923F9CF21E05F
:101D400030E001C0220F8A95EAF720958091A30226
:101D500082230E947C0E08959091610280958923D0
:101D600080936102282F277069F4891759F09091A8
:101D70000A0592FF07C08695869586950E949F0E5C
:101D80000E94960D089521E030E001C0220F8A954F
:101D9000EAF78091A302822B0E947C0E0895909115
:101DA0000A0592FF10C098E0899F90011124622BD0
:101DB000609361020E94C30E0E94490690936002E4
:101DC00080935F0208950E94C30E08958093850258
:101DD0000895662309F45DC08D3C41F40E94120B06
:101DE00081958093E8020E94C90A08958E3C19F4F7
:101DF0000E94120BF6CF8F3C31F40E94120B81959A
:101E00008093E702F0CF803D19F40E94120BF8CFC7
:101E1000893D29F40E94F00A8093E902E4CF8A3DCB
:101E200021F40E94F00A8195F7CF8B3D31F40E9496
:101E3000F00A81958093EA02D6CF8C3D19F40E9476
:101E4000F00AF8CF9FE2980F983070F4815D990BFB
:101E500021E030E001C0220F8A95EAF78091E60286
:101E6000822B8093E602BFCF8D3D31F48091E0025A
:101E700081608093E002B7CF8E3D21F48091E00233
:101E80008260F7CF8F3D09F0AECF8091E002846091
:101E9000F0CF4091E7028D3C59F48091E80287FF32
:101EA0000DC01092E80241110BC01092DE0208C072
:101EB0008E3C81F48091E80218169CF3442381F053
:101EC0008091E9029091EA02892B09F08CCF10925F
:101ED000DF0289CF8F3C49F447FFF0CF1092E70231
:101EE0008091E8028111ECCFE0CF803D19F4141607
:101EF000ACF3E4CF9091E902893D29F41916F4F688
:101F00001092E902DBCF8A3D19F497FFD7CFF8CFC3
:101F10009091EA028B3D29F497FFD0CF1092EA020C
:101F2000CDCF8C3D19F41916CCF3C8CF9FE2980F92
:101F3000983090F4815D990B21E030E0B90102C046
:101F4000660F771F8A95E2F7CB0180959091E602A4
:101F500089238093E602B2CF8D3D31F48091E00277
:101F60008E7F8093E002AACF8E3D21F48091E00223
:101F70008D7FF7CF8F3D09F0A1CF8091E0028B7F5D
:101F8000F0CF81FF03C02F9A81E008952F98FCCFF6
:101F90009C013A9521153F4150F5FC01EE27F17067
:101FA000BC0166277270AC01442754709C01222743
:101FB000387094FF0EC080E1EF2B09F480E0672BAE
:101FC00009F08062452B09F08064232B89F080683A
:101FD000089581E0EF2B09F480E0672B09F082601F
:101FE000452B09F08460232B19F08860089580E068
:101FF00008950F931F93CF93DF938B01EA01909184
:102000003005943061F58093E9008FEF9091E800FE
:10201000815095FD06C095ED9A95F1F7000081116C
:10202000F5CF8091E80085FF1AC00E94F00481116D
:1020300011C08091E80085FD06C08091E8008E7790
:102040008093E800F2CFF80181918F018093F10035
:10205000219779F78091E8008E778093E800DF91EF
:10206000CF911F910F91089543E050E0BC0183E0B0
:102070000E94F90F089546E050E0BC0183E00E9401
:10208000F90F0895CF93DF93EC0180910D0148E0A3
:1020900050E0BE016F5F7F4F882339F080910905C2
:1020A00040E287FF49E050E0BE0183E00E94F90F63
:1020B00080E2FE01AEE0B5E001900D928A95E1F775
:1020C000DF91CF91089581E08093E00080E28093DA
:1020D000D8001092C9008FE19EE40197F1F700C08B
:1020E000000087E090EBDC018093950590939605C6
:1020F000A0939705B093980588E19CE00FB6F894FB
:10210000A895809360000FBE90936000FFCF239A44
:1021100035B1377F25B128604FB7F8948BE193E054
:10212000FC015191CF0168E025B9000000C057FFC4
:1021300035B9550F000000C000C000C035B900C05F
:102140006A9591F7F3E08B349F0751F74FBF8FE506
:1021500094E00197F1F700C000000895CF93DF935A
:10216000C1E5D3E060E0CE010E9472362196C11530
:1021700084E0D807B9F7DF91CF9108951F93CF93EB
:10218000DF93122F8330E0F46C30D0F44930C0F488
:10219000C42FD0E0CC0FDD1F92E1699FC00DD11D8F
:1021A000112498ED899FC00DD11D1124632FCE01FC
:1021B00089960E947236612FCE018A960E947236ED
:1021C000DF91CF911F910895CF93C82F6FEF8111A9
:1021D00067E585E290E00E9472366FEFC11164E618
:1021E00086E290E00E9472366FEFC1116DE087E2E7
:1021F00090E00E947236CF910895AEE1B0E0E3E046
:10220000F1E10C94EC35C090E204D090E30481E05D
:1022100090E09093E3048093E20498EDA92E93E07C
:10222000B92E00E0750110E015C0F401259134913C
:10223000472D612F802F0E94BE1082E0880E911CD6
:102240007394E9E07E12F1CFF2E1EF0EF11C1F5F13
:102250001C3019F04701712CE8CF0F5F88EDA80EF4
:10226000B11C0330F9F61A8219821C821B821E826D
:102270001D8218861F8288EC90E09A8789874AE041
:1022800050E061EB72E0CE0101960E9496364AE082
:1022900050E06BEB72E0CE0101960E9496364AE068
:1022A00050E065EC72E0CE0101960E9496364AE05D
:1022B00050E06FEC72E0CE0101960E9496368AE003
:1022C000B82E8E01055F1F4FF8018B2D11928A9554
:1022D000E9F74AE050E069ED72E0C8010E949636E5
:1022E0004AE050E063EE72E0C8010E9496364AE090
:1022F00050E06DEE72E0C8010E9496364AE050E070
:1023000067EF72E0C8010E9496367E01E5E1EE0EAD
:10231000F11CF7011192BA94E9F78FEF9FEF9A8FB2
:10232000898F87E08E8F01E013E04AE050E0B8012A
:10233000C7010E949636065F1F4F0135F3E01F0765
:10234000A1F7D092E304C092E2046E96EDE00C9403
:10235000083680E00E94E41060E088E290E00E948D
:1023600072360E94FD100E94AE1081E00E94E410BF
:1023700008959B01843070F49AE0899FB001112484
:102380006F547D4F4AE050E0C9010E94443690E00E
:1023900080E008958FEF9FEF0895AAE0B0E0E3EDAD
:1023A000F1E10C94F7359C0137552F3F310509F0C9
:1023B00068F4BE016F5F7F4F0E94B911892B31F421
:1023C00089859A852A96E2E00C94133688EC90E091
:1023D000F9CF0F931F93CF93DF93833030F56C3099
:1023E00020F5493010F5C42FD0E0CC0FDD1F22E1DD
:1023F000629FC00DD11D112438ED839FC00DD11DEA
:102400001124CE0189960E945436082F10E0102F17
:102410000027CE018A960E9454369801282BC901C4
:10242000DF91CF911F910F91089590E080E0F8CF58
:10243000462F2091DC023091DD02232B99F4703F6E
:1024400039F4603F79F480914B0390914C030895E7
:102450007C3040F4693030F4833020F4672F0E94E0
:10246000E911089590E080E00895CF92DF92FF9205
:102470000F931F93CF93DF936C010091A302809180
:102480008502082BC2E0D0E010E0FC2EC8010C2E23
:1024900002C0959587950A94E2F780FD0CC02197BC
:1024A000A0F7F12C8F2DDF91CF911F910F91FF900D
:1024B000DF90CF900895B6018C2F0E9418120E94D1
:1024C0004A0C019761F3EECFCF93DF93EC010E94AA
:1024D0003512BE010E9418120E944A0CDF91CF9162
:1024E0000895FC0184818823F9F087819085009705
:1024F00091F00E944A0C92959F709630B9F080F44A
:10250000925F9F70923080F4803F19F058F4883EBB
:1025100058F481E00895808191810E946412EBCF8C
:102520009A5FEFCF843FA9F380E00895883E88F357
:10253000813FD1F7EECFA6E0B0E0E1EAF2E10C9402
:10254000F6359C01FC01878190850097E1F486E0D7
:10255000DE01119601900D928A95E1F7F90125812E
:1025600089819A81222399F0662389F00E9435128D
:10257000182F682F89819A810E94450E69817A817E
:10258000812F0E9418122696E3E00C9412360E94C6
:10259000110E182FF3CF85E290E00E945436873554
:1025A00089F486E290E00E945436843659F487E23A
:1025B00090E00E94543691E08D3009F090E0892F30
:1025C0008170089580E0FCCFAAE0B0E0EAEEF2E18D
:1025D0000C94ED3506ED13E084ECC82E83E0D82E84
:1025E000EE24E39493E0F92E27E0922E33ECA32E11
:1025F00033E0B32E88248394D6010D931D936D018F
:102600004AE050E0B701CE0101960E944436F8013D
:102610003896DF01892D1D928A95E9F789819A8183
:10262000D80111969C938E938F8112968C9312975A
:102630008D8113968C931397888514968C93149799
:10264000898515968C9315978B819C8117969C9301
:102650008E93169718961C9218978A8587FF3CC010
:102660001E961C921E921D9780FF03C0D8011896DB
:102670008C9281FF04C0F80190859260908782FF60
:1026800007C0D80118969C911897946018969C934F
:1026900083FF04C0F80190859860908784FF07C08D
:1026A000D80118969C911897906118969C9385FF75
:1026B00004C0F801808580628087015F1F4FFAE0C7
:1026C000EF0EF11C81E5E81683E0F80609F094CFDF
:1026D0002A96ECE00C940936F801B686A586C4CF9C
:1026E000AAE0B0E0E6E7F3E10C94F135EBE9F3E0C2
:1026F00088E2DF011D928A95E9F7E1E5F4E08CE1DB
:10270000DF011D928A95E9F78BE9C82E83E0D82E68
:102710007F0109ED12E0F701D182C0824AE050E06A
:10272000B801CE0101960E94443688E0FE01319640
:10273000D60101900D928A95E1F789859A85D70196
:1027400013969C938E931297BAE0CB0ED11CE7E0C0
:10275000EE0EF11C065F1F4F0130F3E01F07D9F6A4
:102760002A96E8E00C940D3646E050E068E170E00F
:1027700084E495E00E94623610921A030895B0E056
:10278000A0E0E5ECF3E10C94E935C0901403D0909F
:102790001503E0901603F09017038FB7F89440905C
:1027A00005055090060560900705709008058FBFDD
:1027B000530142018C189D08AE08BF080E943D06D7
:1027C000609314037093150380931603909317037B
:1027D000A091EB02EBEEF2E02A2F30E04FEFC40EB7
:1027E000D41EE11CF11CC418D508E608F708A31391
:1027F0001BC02093EB0230914405132F137019F086
:10280000132F1695169520910B01213071F122237B
:10281000F1F0223009F434C1233009F43AC1CDB7C4
:10282000DEB7E0E10C940536418D528D2A01712C02
:10283000612CC414D504E604F70420F421503F5F52
:102840003296D5CF480D591D528F418FF8CF109237
:102850000E0160934005709341058093420590936B
:10286000430581E080930B01DACF90910A0181E06A
:1028700019130BC0832F83702091090130E091E080
:102880008217130609F490E0892F8170809310015C
:102890008091490590910F01981739F080930F01AD
:1028A00040E060E080E00E947408193078F4E12F85
:1028B000F0E0E055F94C0C94DA3580911001882352
:1028C00019F140E060E080E00E94740880E01CC0E4
:1028D000C0910E01CC0FCC0F04E00C0FF02E013193
:1028E00010F090E1F92E60914505709146058091B8
:1028F00047050E94E309E62ED72EC82ED0E0CF155B
:10290000A8F081E0003110F790910E019F5F909345
:102910000E01811184CF82E080930B018091100120
:1029200081117DCF11117BCF83E09CCFFE01EA5056
:10293000FE4F808190910F01892331F02C2D4E2D77
:102940006D2DCE010E9498072196D9CFC0910E011E
:10295000CC0FCC0F04E00C0FE02E013110F080E121
:10296000E82E309148053695369521E0320F08F46F
:102970003FEF409140055091410590E080E0439F3A
:10298000812D539F800D911D1124F82ED0E0CE157E
:1029900008F0B7CFFE01EA50FE4F808190910F0101
:1029A000892391F060914505709146058091470516
:1029B0002F2D4C2F0E9493080E94E309462F282FA9
:1029C000672FCE010E9498072196E1CF80911001D8
:1029D00081110E94C10469ED78E083E698E00E94CD
:1029E000770A92CF8091100181110E94C10469ED94
:1029F00078E08DE498E0F3CF80911001882351F0C6
:102A00000E94C10481E080933F0580E18093190317
:102A1000109218036FE979E0E0CF809110018823CC
:102A200051F00E94C10481E080933F0580E18093D2
:102A30001903109218036FE979E0DBCF8091100140
:102A4000882351F00E94C10481E080933F0580E11A
:102A5000809319031092180364E379E0BECF80914C
:102A60001001882351F00E94C10481E080933F054A
:102A700080E1809319031092180364E379E0B9CFE1
:102A800010930A01832F8370809309010E9487109D
:102A90004BCF80911A0381110E94B41340914005DD
:102AA0005091410560914205709143052FB7F8940C
:102AB0008091050590910605A0910705B091080544
:102AC0002FBF841B950BA60BB70B4097A105B10533
:102AD00008F4A5CE10920B01A2CEE4E4F5E085E067
:102AE00080838091110190911201A0911301818343
:102AF0009283A3838FE784838FEF85830E94B4132F
:102B0000089590910A0592FB222720F9281779F061
:102B100080FB92F990930A056091090570910A056E
:102B200084E090E00E94903682E00E94AC0E08950E
:102B300090E080E00E945C36863E9E4F19F40E9431
:102B4000CB12089580E00895A8E1B0E0EAEAF5E14B
:102B50000C94ED358E010F5F1F4F88E1F801119243
:102B60008A95E9F795E5E92E91E0F92E6801AA2406
:102B7000A394B12CF70181917F018F3F09F446C0E6
:102B8000F894E82FE295EF70F0E021A18F70A50195
:102B900002C0440F551F8A95E2F7CA01922F982B65
:102BA00091A392A18095892382A3789400C0E1E645
:102BB000F1E021E030E0912C812C41914F3F09F46C
:102BC00067C0A42FA295AF70B0E090968C9190E072
:102BD0004F7002C0959587954A95E2F780FD58C0E1
:102BE000C901882A992A220F331F51E0EA36F507D6
:102BF00021F7F701319780818F3F11F00E94420B3E
:102C000080EA8A95F1F7F60191828082F2E0CF0E98
:102C1000D11C41E6E41641E0F40609F0ABCF48E1EF
:102C200050E0B8018BE892E00E942736892B99F199
:102C300088E1F801ABE8B2E001900D928A95E1F7E6
:102C400081E080938A020E944906909389028093D2
:102C5000880280918802909189020E942E06059731
:102C6000F0F048E150E06BE872E084EC92E00E9402
:102C70002736892BC9F088E1EBE8F2E0A4ECB2E05A
:102C800001900D928A95E1F781E010928A0208C0C6
:102C900090E080E0A6CF80918A028111DACF80E0B7
:102CA0006896ECE00C94093680E0EFCF8091FB044D
:102CB0009091FA04892B80930902809184028823E1
:102CC00039F10E9449062091820230918302821BD1
:102CD000930B8838934110F00E94680D809109028F
:102CE00090918402892B8093090280910D018823A1
:102CF00009F444C08091090587FF40C02EE18AE0B5
:102D000092E030E0215008F03DC031110E94680D82
:102D10008091F00480959091090289239091F104AB
:102D2000892B8093090240E250E062E672E088E07D
:102D300092E00E942736892B01F180E2E8E0F2E080
:102D4000A2E6B2E001900D928A95E1F7E0910005CC
:102D5000F0910105309789F080910D018823D1F021
:102D60008091090587FF16C086E0809308020280E3
:102D7000F381E02D88E092E00995089526E08BE04C
:102D800092E0BFCFFC014191CF01442309F4BACFB7
:102D90003F5FB8CF81E0E9CFCF93DF93EC014A8565
:102DA0005B856E857F850E94AC068B810E94880DB5
:102DB0008C810E948F0D0E94561686E0FE011192B2
:102DC0008A95E9F7DF91CF910895CF93DF93EC01D6
:102DD0008D8181FD17C082608D838091FA049B8173
:102DE000892B8093FA048091FB049C81892B80932A
:102DF000FB040E945616488559856E857F85CE0155
:102E00000E94AC061092FD041092FC048D8180FD9E
:102E100003C0CE010E94CC16DF91CF91089510928D
:102E2000FB0480910D01882339F18091090587FF0A
:102E300023C0EAE0F2E08EE1DF011D928A95E9F716
:102E400090E080E00E947A0690E080E00E945506C3
:102E50001092FA040E94561686E0E5EEF2E0DF01D9
:102E60001D928A95E9F71092DE021092DF0210920D
:102E7000E0020E94C90A0895EBE0F2E086E0DCCFB0
:102E8000AAE2B0E0E6E4F7E10C94F63582E395E0DF
:102E90002091F100FC012193CF01F5E08A339F07D7
:102EA000B9F780913305833009F470C0B8F48130EC
:102EB00009F447C0823009F4B1C08091E80083FF73
:102EC00091C280913205909133059A3008F08AC200
:102ED000E92FF0E0E754F94C0C94DA358A3009F424
:102EE0008CC08B3009F46FC0893039F7809132057E
:102EF000813219F78091360590913705892BE9F6D3
:102F00008091E800877F8093E8008091E80082FF4D
:102F100038C09091F3008091F200029731F48091D3
:102F2000F100813011F0863021F48091F10080931E
:102F30000D058091E8008B778093E8000E942105C1
:102F4000BCCF80913205813A09F0B7CF8091E8007B
:102F5000877F8093E8008091360590913705892B13
:102F600061F460E28EE095E070E00E94CD05809112
:102F7000E8008B778093E800A0CF60E090E080E0ED
:102F8000F3CF809130058111C0CF97CF809132056A
:102F9000813A09F092CF8091360590913705892BBF
:102FA00009F08BCF8091E800877F8093E8008091C3
:102FB000E80080FFFCCF80910D018093F1008091AB
:102FC000E8008E77B9CF80913205813209F075CF54
:102FD0008091360590913705892B09F06ECF80914D
:102FE000E800877F8093E8000E94210580913405E6
:102FF00080930D010E940F1760CF809132058132BE
:1030000009F05BCF8091E800877F8093E8000E9401
:1030100021058091350580930C054FCF80913205B5
:10302000813A09F04ACF8091E800877F8093E800D9
:103030008091E80080FFFCCF80910C05BECF8038E6
:1030400099F0823809F0CEC1809136058F708730B3
:1030500008F0C8C18093E9008091EB0085FB8827C8
:1030600080F91092E90006C080912E0590912F05FD
:10307000911182609091E800977F9093E80080938F
:10308000F1001092F1008091E8008E77A7C18823AB
:1030900009F495C1823009F0A5C1809134058111F0
:1030A00098C1809136058F702FEF280F263008F0D9
:1030B00099C18093E9002091EB0020FF8AC19330F1
:1030C00031F48091EB0080628093EB0082C190919B
:1030D000EB0090619093EB0021E030E001C0220F03
:1030E0008A95EAF72093EA001092EA008091EB00BB
:1030F0008860EACF811176C1109134051F778091E5
:10310000E3008078812B8093E3008091E800877F43
:103110008093E8000E9421058091E80080FFFCCFA9
:103120008091E30080688093E30082E0111183E0E6
:103130008093300557C18058823008F053C12091E8
:103140003405309135052C3D83E03807A1F583E047
:103150008A838AE289834FB7F894DE01139620E0D0
:103160003EE051E2E32FF0E050935700E49120FF5E
:1031700003C0E295EF703F5FEF708E2F90E0EA3072
:10318000C0F0C7968D939D932F5F243159F74FBFA1
:103190008091E800877F8093E8006AE270E0CE01CA
:1031A00001960E94CD058091E8008B778093E8001E
:1031B00019C1C096E7CF4091360550913705832F4E
:1031C00099278330910501F160F48130910509F46C
:1031D0007EC0029709F006C182E490E0EEE7F7E0D6
:1031E00035C08132910509F466C08232910509F03B
:1031F000F9C04115510509F474C04130510509F079
:10320000F1C0E0E6F6E022C033272130310509F4B1
:1032100042C02115310581F02230310509F443C047
:103220002330310509F0DEC0E2EDF7E0E4918E2FA6
:1032300090E0E2EDF7E007C0ECE1F8E0E4918E2FDA
:1032400090E0ECE1F8E0009709F4CCC02091E800B0
:10325000277F2093E80020913805309139058217A7
:10326000930708F49C0140E02115310509F03EC0A8
:1032700041113CC08091E80082FD95CF80913005DE
:10328000882309F490CF853009F48DCF8091E80030
:1032900083FFF0CF88CFE0E1F8E0E4918E2F90E05B
:1032A000E0E1F8E0D0CFE0EFF7E0E4918E2F90E09E
:1032B000E0EFF7E0C8CF4115510571F041305105FD
:1032C00009F090C089E090E0E9EAF7E0BFCF82E141
:1032D00090E0E0ECF7E0BACF89E090E0E0E9F7E0D9
:1032E000B5CF8CEF90E0E2E8F6E0B0CF809130050A
:1032F000882309F458CF853009F455CF8091E80030
:1033000083FD51CF8091E80082FDB4CF8091E80029
:1033100080FFAACF9091F3008091F2002115310532
:1033200019F08830910550F041E0089709F040E02D
:103330008091E8008E778093E80096CF4491409387
:10334000F1003196215031090196E8CF803809F01B
:1033500049C08091E800877F8093E8008091310523
:103360008093F10090CE81113DC010913405123050
:10337000C8F58091E800877F8093E80010933105BD
:103380000E942105112311F084E005C08091E30023
:1033900087FDFACF81E08093300542E261EC83E063
:1033A0000E94400542E261EC81E00E94400542E259
:1033B00060EC82E00E9440058091300513C080914E
:1033C0003405813079F481E0933009F080E0809316
:1033D0002F051092E9008091E800877F8093E80034
:1033E0000E9421058091E80083FF0AC08091E800D7
:1033F000877F8093E8008091EB0080628093EB00F0
:10340000AA96E3E00C9412360E940F172FEF84E384
:103410009CE0215080409040E1F700C0000088E12E
:103420009CE00FB6F894A895809360000FBE90932F
:103430006000FFCF882321F00E94880D0E9456165D
:103440000895882339F09091FA04982B9093FA0408
:103450000E9456160895882321F00E948F0D0E9425
:1034600056160895882339F09091FB04982B909379
:10347000FB040E9456160895882309F456C082382A
:1034800079F40E949F0681FF50C089E30E94D20D0B
:103490000E94561689E30E94A70D0E9456160895B1
:1034A000833859F40E949F0680FF3FC083E50E9445
:1034B000D20D0E94561683E5EECF843859F40E944F
:1034C0009F0682FF32C087E40E94D20D0E945616EA
:1034D00087E4E1CF9CEF980F913AE8F290E2980FE1
:1034E000983050F4877091E001C0990F8A95EAF7FF
:1034F000892F0E948F0DD1CF9BE5980F933028F430
:1035000090E080E00E947A06089598E5980F9B313C
:1035100028F490E080E00E945506089593E3980F08
:10352000933118F460E00E94E90E0895FF920F9322
:103530001F93CF93DF93F82E0091F5041091F604BA
:103540000115110509F449C01092F4041092F30416
:103550001092F0041092F104D8011696CD91DC91EE
:103560009E013A9521153F4108F4D07ED1E0C1116A
:1035700001C0D0E0D8011996ED91FC911A973097CF
:1035800031F01B966D917C9180E00995D823DD2365
:1035900039F08CEF8C0F813A30F58C2F0E94A70DFB
:1035A000FF2099F0E091F504F091F604808584FD08
:1035B0000CC08091F204882341F0808191819C01AC
:1035C000215031092F333E47A0F00E945616109229
:1035D000F6041092F5041092F204C801CDB7DEB7DC
:1035E000E5E00C9410360E9456168C2F0E943C1A6F
:1035F000D7CF0E94B206E9CFCF93C82F8823C9F056
:103600008238C9F40E949F0681FD13C089E30E949D
:10361000D20D0E9456162FEF87EE93E02150804086
:103620009040E1F700C0000089E30E94A70D0E94CE
:103630005616CF9108958338A1F40E949F0680FD0D
:10364000F8CF83E50E94D20D0E9456162FEF81EE2F
:1036500094E0215080409040E1F700C0000083E5F5
:10366000E4CF8438A1F40E949F0682FDE2CF87E474
:103670000E94D20D0E9456162FEF81EE94E0215049
:1036800080409040E1F700C0000087E4CECF8CEF8F
:103690008C0F813A88F580910D01882301F180918A
:1036A000090587FF1CC0EC2FE695E695E695F0E04E
:1036B000E85FFD4F828190E04C2F477021E030E0C1
:1036C00002C0220F331F4A95E2F782239323892BEE
:1036D00079F08C2F0E94A70D0E94561609C0EBE0CE
:1036E000F2E08191C817A9F322E0E131F207C9F7AE
:1036F0008C2F0E94D20D9BCF80E28C0F883068F413
:10370000C77021E030E001C0220FCA95EAF780912E
:10371000FB04822B8093FB048ACFEBE5EC0FE330B4
:1037200040F4F0E0E45EFE4F808190E00E947A0673
:1037300080CFE8E5EC0FEB3150F4F0E0EE0FFF1F27
:10374000E15EFE4F808191810E94550672CF83E336
:103750008C0F833108F06DCF61E08C2F0E94E90E51
:1037600068CF1F93CF93DF93182FD0E0C0E0893349
:1037700011F4C0E5D0E0812F0E94FC1A209739F4A3
:10378000812F0E943C1ADF91CF911F9108958FE9FC
:103790009FE00197F1F700C000002197EFCFB0E064
:1037A000A0E0E5EDFBE10C94EF35EC018AE0A82EFA
:1037B0002881222309F48FC02130C9F599818A819B
:1037C000913021F422960E94B11B05C0923029F459
:1037D00022960E94FC1A2196EBCF933021F4229678
:1037E0000E943C1AF8CF943011F02196F4CF229623
:1037F00030E020E0AE014F5F5F4F8053990B8A307D
:10380000910550F02150310930F38FE99FE0019785
:10381000F1F700C00000F6CFA29EB001A39E700D8C
:1038200011249C01260F371F8981EA01E3CFE22F83
:10383000F0E0E05BF74FB490822F869586958695F1
:1038400090E0FC01E05CF74FE4902770F12C022E31
:1038500002C0F594E7940A94E2F731E0E322FF24F2
:10386000FC01E05DF74FC490D12C022E02C0D5942C
:10387000C7940A94E2F731E0C322DD24FC01E05E44
:10388000F74F049110E002C0159507952A95E2F7CD
:1038900001701127E114F10419F081EE0E94FC1A65
:1038A000C114D10419F086EE0E94FC1A8B2D0E94DF
:1038B000B11BC114D10419F086EE0E943C1AE11428
:1038C000F10419F081EE0E943C1A0115110509F46A
:1038D00082CF8CE278CFCDB7DEB7EAE00C940B361E
:1038E000B0E0A0E0E6E7FCE10C94F1356B01C42FF9
:1038F000D22FFC0185818823A9F04093F9040E940E
:1039000049069093F8048093F704C77081E001C0E2
:10391000880FCA95EAF70E94321ACDB7DEB7E8E001
:103920000C940D361091F904141337C08091F704EC
:103930009091F8040E942E067C01C6010E94CD11D0
:10394000E816F90650F5C0E2CD0F1D17C1F080E270
:10395000810F883048F4177081E0012E01C0880F74
:103960000A94EAF70E942B1AC83048F481E09D2F90
:10397000977001C0880F9A95EAF70E94321A802F3B
:103980000E94B11BC83048F6D77081E001C0880F93
:10399000DA95EAF70E942B1AC0CFC77081E001C008
:1039A000880FCA95EAF7F6CFCF93DF93EC010E9418
:1039B000C80F9E01205E31092830310510F0209794
:1039C00041F40E94321A8C2F0E94FC1ADF91CF9191
:1039D00008950E94211AF7CFA7E0B0E0E2EFFCE1E2
:1039E0000C94E7357C01DC0114968C91882309F452
:1039F00057C161E0C7010E949B128C01F7018581CC
:103A0000882319F18091FC049091FD040097E9F05E
:103A100008171907D1F09927E4E0880F991FEA9554
:103A2000E1F7FC01E05AFC4F208124602083855A95
:103A30009C4FDC010D931C930E94E5161092FA0432
:103A400061E0C7010E949B128C01F70185818823E8
:103A500009F4B1C0C80197578038910508F0DEC05D
:103A6000D02EFFE0F01708F40BC18FEF93E00E9417
:103A70005436811105C101E513E0D11036C0198219
:103A80001A821B821C8299249A9468013FEFC31A00
:103A9000D30AC8010E94543689831A82882309F404
:103AA000EFC0813009F081C0580142E0A40EB11C82
:103AB000C6010E945436C82E8A83882309F4E0C0C8
:103AC000C5010E945436D82E8FEF8C0D8330D8F468
:103AD000580153E0A50EB11CDB82DD2021F0CE01A0
:103AE00001960E94CF1B8501D0CF011524E012075B
:103AF00009F4C6C0C8010E945436811101C0DA948D
:103B00000F5F1F4FBACF8BEF8C0D833030F5C8019C
:103B10000396DB825C01DD2031F35801A4E0AA0E9C
:103B2000B11C0E9454368C838823E9F28B819C81DE
:103B30008130BFEF9B0710F0982F8827E6E0CE1664
:103B400031F0F7E0CF1631F00E94C22ACCCF0E94AC
:103B50009D2AC9CF0E94172AC6CF24E0C212C3CF24
:103B6000580134E0A30EB11CC80103960E945436DC
:103B7000DD2009F485C0882309F482C08150990BA7
:103B8000989E9001999E300D11244D2D4150550B5A
:103B9000CA01820F931F019708F4A5CFAFE9BFE0D8
:103BA0001197F1F700C00000F6CFCE0101960E94F8
:103BB000CF1B560198CF6801E7E5DE1AFFEFCF165D
:103BC000D10409F058F561E573E08C2D0E94B9111C
:103BD000892B21F5C60164E0880F991F6A95E1F7EA
:103BE000FC01E55AFC4F22812130A1F520915103BF
:103BF00030915203232B91F02091530330915403C1
:103C0000232B61F0209155033091560340915703C7
:103C100050915803242B352B232B21F1D7011596D6
:103C20005C90552009F440C00E35BCE71B0729F114
:103C30000F35ECE71E0741F00D35FCE71F07A1F536
:103C4000809100018823C9F01092000180E00E9459
:103C5000961A16C0223011F7209155033091560361
:103C6000232BE1F2FC01E05AFC4F20812E7F2083C0
:103C7000855A9C4F0E94E516D1CF81E080930001C8
:103C800080916102877061F0D70115968C9188232D
:103C900039F080910A0582FF03C082E00E94AC0ED9
:103CA0002796E2E10C94033680910001882309F401
:103CB000F1C4480120EE821A91084090840280915C
:103CC0005E02482A8091FB04482A38E0831691045A
:103CD00008F086C098012770332781E090E001C08A
:103CE000880F2A95EAF7552009F477C0482AD701AA
:103CF0008D919C910E94110E21E030E0390102C0AB
:103D0000660C771C8A95E2F7E091F504F091F604D1
:103D1000FF83EE8320902802309029021D822D819E
:103D2000E22FF0E0EE0FFF1FEC53FC4FC080D1807C
:103D3000C114D10409F409C5411005C0D601129679
:103D40008C91811187C0F601838190E086219721B3
:103D5000892B09F47FC08085982F977009F487E03C
:103D6000F8E08F16910408F055C0552009F44EC0B4
:103D700086958170882309F46DC0D601AD90BC9002
:103D80000A151B0519F4552009F464C0EE81FF8162
:103D9000CE16DF0609F45EC0D6011D96ED91FC91AA
:103DA000309721F08081882309F454C0642DC60126
:103DB0000E940307882309F44DC00A151B0509F06A
:103DC0001EC50115110509F41FC551101FC5A21408
:103DD000B30409F03FC0512C19C58095482287CF04
:103DE000552009F49BC410932902009328020E94D5
:103DF0003D066093EC047093ED048093EE04909381
:103E0000EF041092F4041092F30471CF82FB882720
:103E100080F9B0CF5520F1F08170ACCF0E943C1AF0
:103E200013C50497813A910548F48A2D0E94D20D5A
:103E3000552009F42FC40E94561622CF0E94561610
:103E40008FE39CE90197F1F700C000008A2D0E94E2
:103E5000FC1AEECF9D819F5F9D8361CFFC01208185
:103E600031810217130709F00EC451100EC41092CD
:103E7000F20480E00E94961A0DC4902F812F49C44D
:103E8000F9014485558566857785C9010E94AC0690
:103E9000D60115968C9181FF6CC4C6010E94CC1688
:103EA0008091FC049091FD040817190709F061C482
:103EB0001092FD041092FC045CC406E221EE41EE77
:103EC0006AE17CE7C7010E94701CDACE07E225EEAA
:103ED00045EE6BE17CE7F6CF06E221EE40EE68E1CD
:103EE0007CE7F0CF07E225EE44EE69E17CE7EACF1C
:103EF00006E221EE42EE6CE17CE7E4CF07E225EE3C
:103F000046EE6DE17CE7DECF08E221E045EE6EE1B2
:103F10007CE7D8CF8091090581608093090595C021
:103F200080910A05886080930A058FC080910905F9
:103F30008260F3CF809109058460EFCF80910905FD
:103F40008860EBCF80910A058160EDCF80910A05F2
:103F50008260E9CF809109058061DFCF80910905FA
:103F60008062DBCF809109058064D7CF0E940F1754
:103F7000809109058068D1CF809109058C60CDCFF3
:103F800080910A058360CFCF809109058E7FC5CFD0
:103F900080910A05877FC7CF809109058D7FBDCFAE
:103FA000809109058B7FB9CF80910905877FB5CFB7
:103FB00080910A058E7FB7CF80910A058D7FB3CFA0
:103FC000809109058F7EA9CF809109058F7DA5CFAE
:103FD000809109058F7BA1CF0E940F178091090561
:103FE0008F779BCF80910905837F97CF80910A05BA
:103FF0008C7F99CF8091090582FB992790F921E068
:10400000922790FB82F990FB83F987CF80910A0574
:10401000982F909591708E7F892B90FB81F983CF9B
:1040200090910905892F8F7B96FF806476CF0E943F
:104030000F1790910905892F97FB87F980586DCF4D
:1040400061E08EE090E00E94723660910905709107
:104050000A0584E090E00E9490360E940F1710CE6F
:1040600060E0EFCF90910905892F8F7E94FF8061EA
:1040700054CF90910905892F8E7F90FF81604DCF9D
:1040800090910A05892F877F93FF88604CCF85E345
:10409000A6C385E3B1C38091440591E0892780934D
:1040A000440510920B0180911A03816080931A03DA
:1040B000E7CD46E358E061E478E00E948707E0CD71
:1040C00041E458E066E378E0F8CF47E058E062E189
:1040D00078E0F3CF42E158E067E078E0EECF4BEED6
:1040E00057E069EF77E0E9CF49EF57E06BEE77E013
:1040F000E4CF4FEC57E06DED77E0DFCF4DED57E0CB
:104100006FEC77E0DACF43EA57E061EB77E0D5CFA9
:1041100041EB57E063EA77E0D0CF61E081E00E94B5
:104120001D08AECD0737FCE71F0709F44EC008375E
:104130002CE7120709F44DC0F7018781908500979D
:1041400009F486C00E944A0C8C01F701C580B68034
:10415000B2943FE0B322809161028770F1F0AC2C01
:10416000CC20E1F0812F807F803451F080E2800FFD
:10417000883098F0B11004C0812F807E803269F0C1
:1041800080910A0582FF09C082E00E94AC0E8091F6
:1041900061028770AA24A3948111A12C912E92947C
:1041A0002FE09222FBE0F91508F4C6C0E92DF0E0FB
:1041B000ED53F94C0C94DA3581E00E94C30E43E0D4
:1041C00062E081E00E947F0E5BCD81E00E949F0E45
:1041D000F6CF82E0FBCF03303CE7130731F150F418
:1041E00001155CE71507A1F001301C4709F0A4CFC9
:1041F0000E94041A0B359CE7190741F10C35ACE716
:104200001A07D1F00A351C4709F096CF81E01BC090
:104210000E940F17EFEFF4E32CE0E150F040204054
:10422000E1F700C000000E9463106FEF7FEF90E0A5
:1042300080E00E949036DCCF80910A0582FB8827BF
:1042400080F991E089270E94811576CF80E0FBCF2D
:10425000858100811181882369F0C8010E9435128F
:10426000D82E682FC8010E94450EB8018D2D0E94DE
:10427000181268CFC8010E94110ED82EF6CF212F38
:104280002F70D22E107F19F0D29490EFD922CC202B
:10429000B9F0DD2069F080E2800F883010F0011164
:1042A00009C08091FB04D82AD092FB040E945616C4
:1042B000802F40C08091FA04D82AD092FA04F6CF19
:1042C000802F0E943C1ADD20B9F180E2800F8830F7
:1042D00010F0011104C08D2D0E948F0D03C08D2D93
:1042E0000E94880D0E94561627C0312F3F70D32E92
:1042F000107F103219F0D29480EFD822002351F0B1
:10430000013009F489C0CC2009F495C0BB2009F420
:1043100043C0CECF80910A0582FD3AC0CC2091F1F6
:10432000DD2039F08091FB04D82AD092FB040E9452
:10433000561680E00E94FC1AE92DE850FF0B3497D6
:1043400020F40E949F060E94C10FAA20B1F0809124
:10435000610280FD12C0D70115961C928695869544
:1043600086950E94C30EC7010E94EC1C80916102D9
:104370008695869586950E949F0E60E0C7010E94F3
:104380009B128ECC80E00E943C1ADD20A9F2A3CFC4
:10439000CC2069F1B11004C08D2D0E94321ACCCF0F
:1043A00041E0B41210C0109184028D2D8123D816E3
:1043B00019F20E9449069093830280938202D12AC7
:1043C000D0928402B9CF55E0B512B6CF8D2D0E94A0
:1043D000321A8D2D0E94730D80915E029D2D9823BF
:1043E000D91609F4A9CFD82AD0925E02A5CFB11070
:1043F0000AC08D2D0E942B1A8D2D0E94730D8D2DBC
:104400000E949D0D99CF81E0B81296CF8091FB0458
:104410008D2109F491CFEDCFCC2029F095E09B15AB
:1044200008F48ACFB9CFA4E0AB1508F485CF8D2D61
:104430000E942B1A81CFBB20D1F3093349F4BFEF7F
:10444000E7EEF3E0B150E040F040E1F700C00000DB
:10445000802F0E943C1A70CF812F8695869583709D
:1044600061F0813009F068CFC8019370C11002C0BB
:1044700080E090E00E9455065FCFC8019370C110A4
:1044800002C080E090E00E947A0656CF6C2D802F0B
:104490000E94E90E51CF812F837089F5C1104CCF56
:1044A000402F429546954770440F440F802F8F70E0
:1044B000042E01C0880F0A94EAF7202F207104FF10
:1044C00007C02FE030E001C0220F4A95EAF720959F
:1044D000169516951370123069F050F430918502DC
:1044E000113029F0822B83230E94E60E25CF832BE7
:1044F000822BFACF282B809185028227F5CF8695D3
:10450000CC2011F0812F8170882309F415CF402F22
:10451000429546954770440F440F802F8F70042EAC
:1045200001C0880F0A94EAF7202F207104FF07C00A
:104530002FE030E001C0220F4A95EAF7209516954A
:1045400016951370123069F050F43091A3021130B7
:1045500029F0822B83230E947C0EEECE832B822BAC
:10456000FACF282B8091A3028227F5CF1F70CC2091
:1045700029F0812F0E94C30E802F0FCF802F0E9421
:104580002B1A812F0E949F0ED7CE023F89F160F433
:10459000003FB9F0013F81F0CC2009F464C0B110B4
:1045A00087CE812F8F7128C0033F49F1043FA1F7C7
:1045B00080910A0582FD2FC0812F8F71CC2011F3CD
:1045C0001BC0CC2081F024E02B1508F4B5CE1F7160
:1045D00081E090E0012E01C0880F0A94EAF79091E3
:1045E000A3028927B8CF35E03B1508F4A5CEEFCF5D
:1045F000812F8F71C110C6CF0E94C30E9DCE80E067
:10460000CC2009F4A8CF1F7181E0012E01C0880FD2
:104610000A94EAF7A0CFCC20C9F08091610287709C
:10462000843041F40E94960D812F8F710E949F0E5D
:10463000A12C82CE44E04B15D8F31F71812F0E942C
:10464000C30E63E0812F0E94CF0EF2CF54E05B15C2
:1046500030F40E94960D64E0812F8F71F4CF81E0D9
:104660000E94AC0EE5CFBB2059F0093309F0F0CE23
:104670008FEF97EEA3E081509040A040E1F7E6CEA7
:10468000812F8F717FCF552029F0DC0118968C91F6
:1046900085FFEFCBC8019755F8018F3F910511F0C9
:1046A00008F084C0FF2744E0EE0FFF1F4A95E1F7B2
:1046B0009F01255A3C4F6901D70115968C91E05A0C
:1046C000FC4F908180FB90F99083882309F4D8CB2C
:1046D0000E9449069093BE028093BD02F60182813A
:1046E0008F5F82838091FA049091FB04892B8383EE
:1046F0008091840284834681578166857785C601CF
:104700000E94AC06D60115968C9181FFB6CB90E045
:1047100080E09093FC048093FD042BC080912802DC
:10472000909129020817190781F41092290210921A
:1047300028021092EC041092ED041092EE041092F4
:10474000EF041092F4041092F3048091F504909118
:10475000F604009709F49ECFA8E08A16910408F0A9
:104760007DCB642D0E940307811103C081E00E946C
:10477000961AF70185818823A9F11092F904C801DE
:1047800090578397E0F484E090E00E945C36909329
:104790000A0580930905F801E150F047E232F1057E
:1047A00008F0B8CBE153F94C0C94DA35E851FC47EA
:1047B000E730F105F0F6EF50F94C0C94DA3506319C
:1047C000FCE71F0709F082C08091FB048A7A91E020
:1047D00009F490E090932A02811159CC89E20E9459
:1047E000D20D29CB06312CE7120709F061C0809168
:1047F0002A0281114ECC89E20E94A70D1CCBA11484
:10480000B10409F0E4CA512CB12CA12C80E00E9423
:10481000961AD092F604C092F50481E08093F204D7
:10482000F60185818093F00451100EC0AB2861F031
:10483000F601808191819C0124503109213A310592
:1048400008F0ECCA0E94A70DD6011696AD90BC9058
:10485000C5019A9581159F4110F4E0EEBE227724A0
:104860007394C50101978F339E4708F0712CD601D0
:104870001996ED91FC911A97309731F01B966D9136
:104880007C9181E009957822772079F0F601868184
:1048900097810E94C80F8093F104C501F8E08F163C
:1048A000910408F0BECA0E94B2060E945616C0CA01
:1048B0008091FB048272F801E052F847E531F1057E
:1048C00008F030CCE850F94C0C94DA3507373CE767
:1048D000130709F471CC08374CE7140709F07BCCB7
:1048E00082E06BCCB0E0A0E0E8E7F4E20C94F235B3
:1048F00080915B02807F09F051C080915A02882329
:1049000009F44CC0E091940589E0D82E80914B05C4
:104910008E1709F443C00E2F10E0ED9DF001112415
:10492000E45BFA4F84818823F1F1D09EE001D19EAF
:10493000D00D1124FE01E45BFA4F91818091560263
:10494000981331C090818091550298132CC08581B5
:10495000811129C0E280F380809157029091580222
:10496000E81AF90A60E085E592E00E949B120E9435
:10497000CD11E816F906B8F480915B028F70806162
:1049800080935B02CE5ADA4F88818F708061888372
:1049900085E592E00E94EC1C0E94070ECDB7DEB7C1
:1049A000E7E00C940E36F8013196E770AFCFA8E13E
:1049B000B0E0EDEDF4E20C94EA358C0186E0F8010C
:1049C000DE01539601900D928A95E1F7F801F4808B
:1049D000E58085E5882E82E0982E8091590281112C
:1049E0002AC0F11003C0FF24F3941CC0EE20F9F09C
:1049F000C8010E947112F82E8823C9F089E0F801DD
:104A0000A5E5B2E001900D928A95E1F780915902F7
:104A1000813031F480915502909156020E946412C7
:104A20000E9472248F2D6896EFE00C940636C80120
:104A30000E94EC1CD8CFC280D380B0905A028091E3
:104A40005702909158023601681A790ABB2009F47E
:104A500020C15080A18060E085E592E00E949B1219
:104A60000E94CD116816790608F0BDC0FF2009F438
:104A7000BACF80915B02382F307F20915602F80127
:104A80009181311161C0FE2C29131DC02091550266
:104A90009081291318C040915C0250915D022781DA
:104AA00030854217530779F4E11047C08F70806159
:104AB00080935B0285E592E00E94EC1C80915B0292
:104AC000F8018683AFCFE11038C06A2D852D0E9492
:104AD000A2046A2D852D0E94A204E82E8111A2CF86
:104AE0005B8AAC8A8B899C890E946412292F22954B
:104AF0002F70243058F49F70223088F0992399F059
:104B0000F8019681907F79F4FE2C8CCF2A5F2F706C
:104B1000223068F0C8010E94EC1CEB2CF5CF9923E1
:104B200011F0882389F3805E883070F3F3CF803FE3
:104B300058F3815F833070F7E7CF80915B0281602B
:104B400080935B02F12C6ECF29131EC02091550279
:104B50009081291319C040915C0250915D02278118
:104B600030854217530781F4E1100EC08683C801D7
:104B70000E94EC1C89E0F801A5E5B2E001900D92DD
:104B80008A95E1F7FB2C4ECFC8010E947112882351
:104B900009F44DCFEE2009F44ACF80915B028032B8
:104BA000B8F020915502309156023B872A87DD8666
:104BB000CC86909159029E871F86888B80915C02DB
:104BC00090915D029A8B898BCE010A960E94EC1C13
:104BD00089E0F801A5E5B2E001900D928A95E1F730
:104BE0000E94722400CF80915B02982F907F51F435
:104BF00085E592E00E94EC1C89E0F40111928A950F
:104C0000E9F7A0CFFF2009F4EECE20915602F8017B
:104C1000918129131AC0209155029081291315C042
:104C200040915C0250915D02278130854217530705
:104C300061F4E1100AC08683C8010E94EC1C89E07F
:104C4000F40111928A95E9F79DCFC8010E94711273
:104C5000882309F4ECCEEE2009F4E9CE80915B02C2
:104C6000803208F4B5CF20915502309156023A8334
:104C70002983DC82CB82909159029D831E828F838F
:104C800080915C0290915D0299878887CE010196A0
:104C90009DCF60E085E592E00E949B120E94CD11BD
:104CA0006816790608F0A8CFFF2009F49CCEFE2CE8
:104CB000EE2009F4BCCE90915602F8018181981340
:104CC00036C0909155028081981331C020915C02CA
:104CD00030915D02878190852817390741F58091D1
:104CE000570290915802C81AD90AF8ECCF16D1048D
:104CF000A8F490915B0290FD11C0907F79F08091B3
:104D00005B02F8018683903F31F0982F907F905F8F
:104D10008F70892B8683C8010E94EC1C89E0F80102
:104D2000A5E5B2E001900D928A95E1F77BCEC8012E
:104D30000E94711281114CCF80915B02816080933F
:104D40005B02C8010E94EC1C6DCEA2E1B0E0EBEA70
:104D5000F6E20C94F5350A871B872C873D874E8732
:104D60005F87688B798B8A8BCE010A960E94D72445
:104D700081110CC089E0FE013A96DE011196019086
:104D80000D928A95E1F78E8581110BC019E0809113
:104D9000940590914B05891331C06296E4E00C9420
:104DA000113620914B0530E0C90101968770992793
:104DB000409194054817190699F099E0929FD00107
:104DC000939FB00D1124A45BBA4FFE013196019060
:104DD0000D929A95E1F780934B050E94070ED6CF6E
:104DE0000E940F1710924B051092940589E0E5E59B
:104DF000F2E0DF011D928A95E9F7C8CF819FC001DB
:104E00001124845B9A4F0E94D724882331F2809129
:104E1000940590E001968770992780939405B7CF09
:104E2000EF92FF920F931F93CF93DF9380916D04C6
:104E3000882361F0E09150048DE0F82E80916D049C
:104E4000E81748F010926D0410925004CDB7DEB709
:104E5000E6E00C940F36EE24E394EE0EE09250045C
:104E6000CE2FD0E0EF9DF0011124E259FB4F848159
:104E70008823E9F087819085892B21F481859285AB
:104E8000019659F400811181228133814481558139
:104E90006681778180850E94A526FC9EF001FD9E9B
:104EA000F00D1124E259FB4F14821092FA04EE2DFA
:104EB000C5CF1092E1041092E00410920C01809191
:104EC000DF048093DE040E9451070E94102708959A
:104ED000B0E0A0E0EEE6F7E20C94E835C091DE0425
:104EE00097E0992E01E010E02DE0322E34E0432EC1
:104EF000552453948091DF048C1309C00E9410271D
:104F00000E945107CDB7DEB7E1E10C940436D0E042
:104F1000FE01EE0FFF1FEA52FB4F80819181989EA8
:104F2000D001999EB00D1124AF5ABB4F14962C910D
:104F30001497211159C060906D04EEE6F4E030E062
:104F400020E0812C5D01261508F04CC0E384F48438
:104F5000D501CD90DC906FEF7FEF712C472D50E0A5
:104F6000DA01AA0FBB1FAC0DBD1D0D90BC91A02D89
:104F7000109731F0EA16FB0609F4BA017394EECFEC
:104F80006F3F7607A9F1D80102C0AA0FBB1F6A952F
:104F9000E2F78A2AB801072C02C0660F771F0A942D
:104FA000E2F7AB01415051098416150601F5329E16
:104FB000F001339EF00D1124E259FB4F989ED00171
:104FC000999EB00D1124AF5ABB4F12962D913C9172
:104FD00013973087278344821082118292878187BA
:104FE00015965C920E9423072196C37083CF14828A
:104FF0002F5F3F4F3D96A7CFAEE1B0E0E2E0F8E291
:105000000C94E7354B8B5C8B6D8B7E8B8F8B988FE5
:1050100091111092FA04188A198A1A8A86E0FE0100
:105020007396DE011A9601900D928A95E1F78091B0
:105030000A0582FF1CC00E94490620915F02309140
:105040006002821B930B8838934120F080916102AB
:1050500082FFE9C10E9449062091820230918302B9
:10506000821B930B8838934110F00E94680D8E8547
:10507000882389F061E0CE010A960E949B126C01A0
:105080008F8540E5C4164CE7D40689F4882329F1BE
:1050900081E080930C010A851B852C853D854E851A
:1050A0005F85688979898A890E94A526C7C061E5DC
:1050B000C6166CE7D60629F4882379F00E94592792
:1050C000EACF72E5C7167CE7D70639F4882329F0C2
:1050D00080910C018111F2CFDBCF81E5E82E84E0D5
:1050E000F82E512CB12CA12C88248394912CCE0124
:1050F00001969A8F898F44244394F701408151810E
:1051000066246A94762C20E0822F90E0FC01EE0F5A
:10511000FF1FE40FF51F608171816115710531F08A
:10512000C616D70609F43C012F5FEECF10E0FFEF63
:105130006F167F0609F443C0F701448110910C01FA
:10514000812F411180E0182F1170F7013580868181
:105150009F85992309F4F3C0112309F4F0C031109D
:1051600014C0A401062C01C0440F0A94EAF7842B52
:10517000868380914E0490914F04C29730F462E38D
:1051800070E070934F0460934E04C40102C0880F16
:10519000991F2A95E2F70197F7012681281719062A
:1051A00071F48091E0049091E104009709F44AC001
:1051B0000E942E06C39708F445C0F7014482512A85
:1051C000FFEFAF1ABF0A27E0E20EF11C34E0A3168E
:1051D000B10409F092CF8F85882309F410C15520BE
:1051E00009F40DC10E9449069093E1048093E00404
:1051F00080916D04883010F591E0980F90936D04C4
:1052000099E0FE013A96DE01119601900D929A9571
:10521000E1F74DE0849FC001112482599B4F29E0A2
:10522000FE013196DC0101900D922A95E1F72FEFF6
:105230003FEFFC0132872187D486C3866E96E2E178
:105240000C9403368091DE045091DF04982FF0E037
:10525000E0E0851314C09093DE04EE16FF0609F417
:10526000AECF90E0FC01EE0FFF1FEA52FB4FB18280
:10527000A0820196837099278093DF04A0CF282E07
:10528000312CF101EE0FFF1FEA52FB4F20813181DB
:10529000F7E0F29FD001F39FB00D1124AF5ABB4F3E
:1052A0002D913C9111973E8F2D8F40E020E030E012
:1052B000E32FF0E0EE0FFF1F6D8D7E8DE60FF71FE1
:1052C0006080718061147104E1F0F7010190F08158
:1052D000E02DFC8FEB8F20E005C06616770609F401
:1052E000412F2F5FE22FF0E0EE0FFF1F6B8D7C8DC3
:1052F000E60FF71F608171816115710571F73F5FDE
:10530000D7CF4423C9F0F701231708F0FD014482E9
:10531000EE16FF0621F49093DE04142F50CF98135D
:1053200005C0AE17BF0711F49F5F937091012F5F07
:105330003F4F822F83708DCFF0E0E0E0F7CF90E019
:10534000311020C0B40102C0660F771F2A95E2F722
:105350009B01215031092817390731F4442309F4FE
:105360004CC0C5010E942307C401062C01C0880F50
:105370000A94EAF7982F9095F7018681892386830E
:10538000132D1DCFAC01062C02C0559547950A94EC
:10539000E2F7BA01617077279C012150310982231D
:1053A0009323892B31F5672B21F1F70182819381BA
:1053B000892BE1F0E98DFA8D27E011922A95E9F722
:1053C0000E944906282F8B839C8334E03D83F7019C
:1053D00082819381782F8887998709811A813C81FE
:1053E00044E05E816F81892F0E94A526F701158216
:1053F000BBCFF42FF1703F2EB7CF312EB5CF9091A8
:10540000DE048091DF04981729F00E94682751106C
:1054100015CF41CE0E9410271092E1041092E004B3
:105420000E945107F4CF82E00E94AC0E13CEA6E09A
:10543000B0E0EDE1FAE20C94F5358C0190934C0369
:1054400080934B03011580E21807C0F4802F0E945F
:105450003C1AC8010E94C80F9801205E310928300B
:10546000310518F00115110531F40E942B1A26960A
:10547000E4E00C9411360E941A1AF9CF80EF898368
:105480008A830E9449068160682F9C838B834981AF
:105490005A817C8181E090E00E94FC27E8CF0F9345
:1054A0001F93CF93DF938C01EB0161E573E08C2FA9
:1054B0000E94B911892B71F4DD27C35BDC4F888111
:1054C000F801128218828330F1F048F4813059F0EB
:1054D000823081F0DF91CF911F910F910895843038
:1054E000B9F08530B9F7809151039091520300973C
:1054F00089F306C08091530390915403009799F368
:105500000E94172AE7CF8091550390915603F6CF5A
:105510008091570390915803009791F72091510380
:10552000309152038091530390915403211531051A
:10553000F1F2009729F7C901E3CFA6E0B0E0E3EA72
:10554000FAE20C94F73590934C0380934B0381154A
:1055500020E2920730F40E94D41C2696E2E00C94DC
:10556000133680EF89838A830E9449068160682F01
:105570009C838B8349815A817C8181E091E00E94E8
:10558000FC27EBCFCF93DF93EC010E949D2ACE0145
:105590000E94172ADF91CF9108950F931F93CF9305
:1055A000DF938C01862F61E573E00E94B911892B8E
:1055B000B1F4C0915103D0915203209781F0F801CA
:1055C0008281833051F4CE010E94C22ACE010E9412
:1055D000C22ACE010E94C22A02C08430D0F7DF91D5
:1055E000CF911F910F9108950F931F93CF93DF9346
:1055F0008C01EB0161E573E08C2F0E94B911892BBE
:1056000009F05CC0FE01FF27D80112968C91129719
:10561000E35BFC4F8130B9F415969C9192FF02C078
:1056200080830AC090FFFCCF82E080838091530387
:10563000909154030097B9F48091510390915203D3
:105640000097E1F110C08230B9F515968C9182FD7A
:1056500028C080FD0BC083E080838091550390912A
:105660005603009701F10E949D2A28C084E08083A0
:1056700080915703909158030097A9F780915103A7
:10568000909152030097F9F00E94C22A809153032F
:1056900090915403009739F78091510390915203F0
:1056A000E2CF85E08083809151039091520300976F
:1056B00029F00E94C22AF0CF86E08083DF91CF914B
:1056C0001F910F9108958091530390915403B8CF87
:1056D000A6E0B0E0EEE6FBE20C94F5350E94490648
:1056E0008C0180918602909187028017910781F04A
:1056F00019821A820E944906682F49815A81792F9E
:1057000080E090E00E94FC271093870200938602BD
:105710002696E4E00C941136A8E0B0E0E2E9FBE262
:105720000C94F73566EE7EEF90E080E00E949036B4
:1057300060E082E090E00E94723660E083E090E0FA
:105740000E9472361092850260E074E184E090E07D
:105750000E94903660E086E090E00E9472366FEF23
:1057600087E090E00E94723640E050E0BA0188E0A5
:1057700090E00E94843660E084E290E00E947236FD
:1057800060E087E190E00E94723660E08CE090E09B
:105790000E94723660E08DE090E00E9472361982BD
:1057A0001A821B821C821D821E821F82188648E07C
:1057B00050E068E170E0CE0101960E94623640E060
:1057C00050E0BA0180E290E00E94843680E00E94BE
:1057D000E4100E94A91140E050E0BA018FE090E08F
:1057E0000E94843640E050E0BA0183E190E00E94DC
:1057F00084362896E2E00C9413361F920F920FB66F
:105800000F9211242F933F934F935F936F937F9346
:105810008F939F93AF93BF93CF93DF93EF93FF93B8
:10582000D091E900DF708091EC00C82FC17080FD3D
:10583000C0E81092E9008091F000877F8093F0002B
:1058400078940E9440171092E9008091F0008860DF
:105850008093F000CD2BCF70C093E900FF91EF91C2
:10586000DF91CF91BF91AF919F918F917F916F9178
:105870005F914F913F912F910F900FBE0F901F900E
:1058800018951F920F920FB60F9211242F933F93EA
:105890004F935F936F937F938F939F93AF93BF9338
:1058A000EF93FF938091E10082FF09C08091E200B5
:1058B00082FF05C08091E1008B7F8093E1008091A1
:1058C000DA0080FF24C08091D80080FF20C0809142
:1058D000DA008E7F8093DA008091D90080FF9DC02E
:1058E00080E189BD82E189BD09B400FEFDCF81E080
:1058F0008093300580910B05811109C00E94D1046D
:105900000E9472058091E20084608093E2008091A1
:10591000E10080FF17C08091E20080FF13C08091FA
:10592000E2008E7F8093E2008091E20080618093AC
:10593000E2008091D80080628093D80019BC85E095
:10594000809330058091E10084FF2BC08091E200BC
:1059500084FF27C080E189BD82E189BD89B5982F88
:10596000917080FFFBCF8091D8008F7D8093D8000D
:105970008091E1008F7E8093E1008091E2008F7E34
:105980008093E2008091E20081608093E200809148
:105990003105882309F447C084E080933005809165
:1059A00030058091E10083FF27C08091E20083FFF2
:1059B00023C08091E100877F8093E10082E08093A3
:1059C0003005109231058091E1008E7F8093E100D7
:1059D0008091E2008E7F8093E2008091E2008061FE
:1059E0008093E20042E060E080E00E944005809108
:1059F000F00088608093F000FF91EF91BF91AF912C
:105A00009F918F917F916F915F914F913F912F91D6
:105A10000F900FBE0F901F90189519BC1092300573
:105A200010920B0574CF8091E30087FD93E0909373
:105A30003005B5CF78941F921FB61F9211248F9313
:105A40009F93AF93BF938091050590910605A09118
:105A50000705B09108050196A11DB11D80930505AC
:105A600090930605A0930705B0930805BF91AF91E9
:105A70009F918F911F901FBE1F9018951F921FB668
:105A80001F9211248F939F93AF93BF93809104052E
:105A9000811113C08091050590910605A09107051D
:105AA000B09108054196A11DB11D80930505909305
:105AB0000605A0930705B0930805BF91AF919F918C
:105AC0008F911F901FBE1F901895CDB7DEB7E99735
:105AD0000FB6F894DEBF0FBECDBF85B7806885BF17
